:100000000C942A000C94D2090C94050A0C94380A1A
:100010000C9447000C9447000C9447000C94470044
:100020000C9447000C9447000C9447000C94F71D67
:100030000C9447000C9447000C9447000C94470024
:100040000C9447000C9447000C9447000C94470014
:100050000C94470011241FBECFE5D8E0DEBFCDBF12
:1000600011E0A0E6B0E0E8E9FDE302C005900D92E2
:10007000A430B107D9F711E0A4E0B1E001C01D92AE
:10008000A431B107E1F70E941A1A0C94CA1E0C940D
:100090000000EF92FF920F931F937B018C0120E0F1
:1000A00030E040E05FE40E94490388238CF0C801FF
:1000B000B70120E030E040E05FE40E94C1010E940F
:1000C000A9039B01AC01205030404040504806C07D
:1000D000C801B7010E94A9039B01AC01B901CA0183
:1000E0001F910F91FF90EF900895A0E0B0E0EBE733
:1000F000F0E00C94931EDC012B01FA019C919230EC
:1001000008F439C1EB018881823008F433C194309E
:1001100069F4843009F02FC111969C91119789815F
:10012000981709F428C1A4EEB0E025C1843009F481
:1001300021C18230A9F4923009F01DC19A01AD01AC
:1001400088E0EA010990AE01E90109929E0181501F
:10015000C1F7E201898111969C918923818308C1AD
:10016000923009F407C112962D903C901397EB0141
:100170008A819B811496AD90BD90CD90DC901797AD
:10018000EC80FD800E811F819101281B390BB90184
:1001900037FF04C066277727621B730B6032710537
:1001A0000CF061C0121613066CF537014801062EDB
:1001B00004C096948794779467940A94D2F721E0C8
:1001C00030E040E050E004C0220F331F441F551FB1
:1001D0006A95D2F721503040404050402E213F21B7
:1001E00040235123211531054105510521F021E01E
:1001F00030E040E050E079018A01E628F72808293C
:1002000019293CC0232BD1F1260E371E350146019A
:10021000062E04C096948794779467940A94D2F734
:1002200021E030E040E050E004C0220F331F441FC3
:10023000551F6A95D2F721503040404050402A2146
:100240003B214C215D21211531054105510521F04E
:1002500021E030E040E050E059016A01A628B728CB
:10026000C828D9280BC0821593052CF01C01AA249C
:10027000BB24650103C0EE24FF24870111969C91E5
:10028000D20111968C91981709F445C0992339F041
:10029000A80197012A193B094C095D0906C0A6016E
:1002A00095012E193F09400B510B57FD08C01182D3
:1002B0003382228224833583468357831DC081E0A5
:1002C00081833382228288279927DC01821B930B4A
:1002D000A40BB50B84839583A683B7830DC0220F2F
:1002E000331F441F551F24833583468357838281E0
:1002F000938101979383828324813581468157813D
:10030000DA01C9010197A109B1098F5F9F4FAF4F72
:10031000BF4328F30BC0918333822282EA0CFB1C7B
:100320000C1D1D1DE482F5820683178383E0808304
:10033000248135814681578157FF1AC0C901AA27F8
:1003400097FDA095BA2F81709070A070B0705695EF
:10035000479537952795822B932BA42BB52B848318
:100360009583A683B7838281938101969383828349
:10037000DF0101C0D201CD01CDB7DEB7E2E10C94BF
:10038000AF1EA0E2B0E0E7ECF1E00C949F1E6983A1
:100390007A838B839C832D833E834F835887E9E048
:1003A000EE2EF12CEC0EFD1ECE010196B7010E943F
:1003B000D2048E010F5E1F4FCE010596B8010E9438
:1003C000D2048A8991E089278A8BC701B801AE01DE
:1003D000475E5F4F0E9475000E94FD03A096E6E015
:1003E0000C94BB1EA0E2B0E0E8EFF1E00C949F1E7D
:1003F00069837A838B839C832D833E834F835887C5
:10040000F9E0EF2EF12CEC0EFD1ECE010196B701A6
:100410000E94D2048E010F5E1F4FCE010596B801D7
:100420000E94D204C701B801AE01475E5F4F0E942F
:1004300075000E94FD03A096E6E00C94BB1EA0E2AE
:10044000B0E0E5E2F2E00C94931E69837A838B833B
:100450009C832D833E834F835887CE010196BE0136
:10046000675F7F4F0E94D204CE010596BE016F5E8A
:100470007F4F0E94D2049985923088F0898982301A
:10048000C8F0943019F4823051F404C0843029F457
:10049000923081F484EE90E0C6C0923049F420E0BE
:1004A0009A858A89981321E02A87CE010996BBC0D4
:1004B000823049F420E09A858A89981321E02A8BBA
:1004C000CE014196B0C02D843E844F8458886D88FB
:1004D0007E888F88988CEE24FF248701AA24BB2471
:1004E000650140E050E060E070E0E0E0F0E0C10174
:1004F00081709070892BE9F0E60CF71C081D191D1E
:100500009A01AB012A0D3B1D4C1D5D1D80E090E062
:10051000A0E0B0E0E614F7040805190520F481E036
:1005200090E0A0E0B0E0BA01A901480F591F6A1F8E
:100530007B1FAA0CBB1CCC1CDD1C97FE08C081E0F5
:1005400090E0A0E0B0E0A82AB92ACA2ADB2A3196B6
:10055000E032F10549F0660C771C881C991C569412
:10056000479437942794C3CFFA85EA892B893C892D
:100570008B859C85280F391F2E5F3F4F17C0CA01FE
:1005800081709070892B61F016950795F794E79428
:1005900080E090E0A0E0B0E8E82AF92A0A2B1B2BC3
:1005A00076956795579547952F5F3F4F77FDE7CF36
:1005B0000CC0440F551F661F771F17FD4160EE0CDE
:1005C000FF1C001F111F21503040403090E05907A0
:1005D00090E0690790E4790760F32B8F3C8FDB0193
:1005E000CA018F779070A070B07080349105A1051A
:1005F000B10561F447FD0AC0E114F10401051105DC
:1006000029F0405C5F4F6F4F7F4F40781A8EFE1786
:1006100011F081E08A8F4D8F5E8F6F8F78A383E01A
:10062000898FCE0149960E94FD03A096E2E10C94C9
:10063000AF1EA8E1B0E0EFE1F3E00C949F1E6983E8
:100640007A838B839C832D833E834F83588789E0F5
:10065000E82EF12CEC0EFD1ECE010196B7010E9492
:10066000D2048E010F5E1F4FCE010596B8010E9485
:10067000D2048985823040F08989823028F0C70110
:10068000B8010E944A0501C08FEF6896E6E00C941D
:10069000BB1EA8E1B0E0EFE4F3E00C949F1E698379
:1006A0007A838B839C832D833E834F83588789E095
:1006B000E82EF12CEC0EFD1ECE010196B7010E9432
:1006C000D2048E010F5E1F4FCE010596B8010E9425
:1006D000D2048985823040F08989823028F0C701B0
:1006E000B8010E944A0501C08FEF6896E6E00C94BD
:1006F000BB1EA8E1B0E0EFE7F3E00C949F1E698316
:100700007A838B839C832D833E834F83588789E034
:10071000E82EF12CEC0EFD1ECE010196B7010E94D1
:10072000D2048E010F5E1F4FCE010596B8010E94C4
:10073000D2048985823040F08989823028F0C7014F
:10074000B8010E944A0501C081E06896E6E00C9479
:10075000BB1EACE0B0E0EFEAF3E00C94A31E6983AB
:100760007A838B839C83CE010196BE016B5F7F4FA2
:100770000E94D2048D81823061F1823050F1843048
:1007800021F48E81882351F12EC02F81388537FDC9
:1007900020C06E812F3131051CF06623F9F023C093
:1007A0008EE190E0821B930B29853A854B855C8511
:1007B00004C056954795379527958A95D2F76623B5
:1007C000B1F050954095309521953F4F4F4F5F4F79
:1007D0000EC020E030E040E050E009C02FEF3FEFD6
:1007E0004FEF5FE704C020E030E040E050E8B9019F
:1007F000CA012C96E2E00C94BF1EDF92EF92FF92AA
:100800000F931F93FC01E480F58006811781D1804E
:100810008081823048F480E090E0A0E1B0E0E82AF6
:10082000F92A0A2B1B2BA5C0843009F49FC0823003
:1008300021F4EE24FF24870105C0E114F104010531
:10084000110519F4E0E0F0E096C0628173819FEF3A
:10085000623879070CF05BC022E83FEF261B370BAC
:100860002A3131052CF020E030E040E050E02AC091
:10087000B801A701022E04C0769567955795479554
:100880000A94D2F781E090E0A0E0B0E004C0880FC5
:10089000991FAA1FBB1F2A95D2F70197A109B10979
:1008A0008E219F21A023B1230097A105B10521F03E
:1008B00081E090E0A0E0B0E09A01AB01282B392B59
:1008C0004A2B5B2BDA01C9018F779070A070B07052
:1008D00080349105A105B10539F427FF09C0205CDA
:1008E0003F4F4F4F5F4F04C0215C3F4F4F4F5F4F13
:1008F000E0E0F0E02030A0E03A07A0E04A07A0E402
:100900005A0710F0E1E0F0E079018A0127C0603871
:10091000710564F5FB01E158FF4FD801C7018F77DE
:100920009070A070B07080349105A105B10539F4C4
:10093000E7FE0DC080E490E0A0E0B0E004C08FE3EB
:1009400090E0A0E0B0E0E80EF91E0A1F1B1F17FFA1
:1009500005C016950795F794E794319687E01695AC
:100960000795F794E7948A95D1F705C0EE24FF2404
:100970008701EFEFF0E06E2F679566276795902F60
:100980009F77D794DD24D7948E2F8695492F462BB9
:10099000582F5D29B701CA011F910F91FF90EF9069
:1009A000DF900895FC01DB01408151812281622F9B
:1009B0006F7770E0221F2227221F9381892F880FD3
:1009C000822B282F30E0991F9927991F11969C930D
:1009D000119721153105A9F54115510561057105DD
:1009E00011F482E037C082E89FEF13969C938E93B8
:1009F00012979A01AB0167E0220F331F441F551F66
:100A00006A95D1F783E08C930DC0220F331F441FEA
:100A1000551F12968D919C911397019713969C9355
:100A20008E931297203080E0380780E0480780E4FA
:100A3000580758F314962D933D934D935C93179755
:100A400008952F3F310579F4411551056105710570
:100A500019F484E08C93089564FF03C081E08C93C3
:100A600012C01C9210C02F57304013963C932E9307
:100A7000129783E08C9387E0440F551F661F771F02
:100A80008A95D1F7706414964D935D936D937C9322
:100A9000179708951F93DC01FB019C91923008F495
:100AA00047C08081823008F443C0943051F41196DD
:100AB0001C91843099F58181682F70E0611B710968
:100AC0003FC0843021F0923031F48230B9F181811D
:100AD000882389F12DC011961C9111978230F1F075
:100AE00081811817D9F412962D913C911397828128
:100AF00093818217930794F028173907BCF0149656
:100B00008D919D910D90BC91A02D248135814681C0
:100B10005781281739074A075B0718F4112341F05A
:100B20000AC082179307A407B50740F4112319F0F0
:100B300061E070E005C06FEF7FEF02C060E070E041
:100B4000CB011F910895DF93CF93CDB7DEB76397A5
:100B50000FB6F894DEBF0FBECDBF9B8B8A8B82E0B1
:100B6000888B82E060E00E9430161F868DC0CE0127
:100B700041960E94921889890E94DB1480E090E0DF
:100B8000A8ECB2E48B879C87AD87BE876B857C859C
:100B90008D859E8520E030E04AE755E40E941F02E3
:100BA000DC01CB018F839887A987BA876F8178850D
:100BB00089859A8520E030E040E85FE30E94790370
:100BC00088232CF481E090E09E838D833FC06F8169
:100BD000788589859A8520E03FEF4FE757E40E94AA
:100BE000190318164CF56B857C858D859E8520E054
:100BF00030E040E251E40E941F02DC01CB01BC0165
:100C0000CD010E944900DC01CB019E838D830FC082
:100C100080E991E09C838B838B819C810197F1F724
:100C20009C838B838D819E8101979E838D838D8193
:100C30009E81009769F714C06F81788589859A85B0
:100C40000E944900DC01CB019E838D838D819E81B2
:100C50009A83898389819A810197F1F79A8389839D
:100C600082E06F850E9430168AE20E94DB148F8535
:100C7000282F30E08A899B89FC01E20FF31F8989C4
:100C800080838F858F5F8F878F85843008F46FCF47
:100C90008F85282F30E08A899B89FC01E20FF31FA2
:100CA0001082188A888963960FB6F894DEBF0FBE4B
:100CB000CDBFCF91DF910895DF93CF9300D000D0C7
:100CC00000D0CDB7DEB79B838A837D836C83198286
:100CD00019C08981282F30E08A819B81FC01E20FB5
:100CE000F31F8081882311F18981282F30E08C81C6
:100CF0009D81FC01E20FF31F80818823B9F0898177
:100D00008F5F89838981282F30E08A819B81FC0154
:100D1000E20FF31F40818981282F30E08C819D8173
:100D2000FC01E20FF31F8081481799F28981282F77
:100D300030E08A819B81FC01E20FF31F80818823D0
:100D400071F48981282F30E08C819D81FC01E20FB4
:100D5000F31F8081882319F481E08E8301C01E82F5
:100D60008E8126960FB6F894DEBF0FBECDBFCF9111
:100D7000DF910895DF93CF930F92CDB7DEB782E076
:100D80008983AFE5B0E0EFE5F0E080818F778C9369
:100D9000198289810F90CF91DF910895DF93CF93CE
:100DA0000F92CDB7DEB782E08983AFE5B0E0EFE523
:100DB000F0E0808180688C93198289810F90CF91B7
:100DC000DF910895DF93CF930F92CDB7DEB782E026
:100DD0008983AFE5B0E0EFE5F0E080818F778C9319
:100DE000198289810F90CF91DF910895DF93CF937E
:100DF000CDB7DEB729970FB6F894DEBF0FBECDBFD3
:100E00009B838A8382E08983EA81FB8180818823B6
:100E100009F059C0ABE5B0E0EBE5F0E0808180641B
:100E20008C93EA81FB818181282F30E039872887E4
:100E30008885998581309105E9F0288539852230AA
:100E400031052CF488859985009761F039C0288593
:100E5000398522303105E9F08885998583309105FF
:100E600039F12EC0A5E5B0E0E5E5F0E080818C7FAA
:100E70008C9335C0A5E5B0E0E5E5F0E080818160C8
:100E80008C93A5E5B0E0E5E5F0E080818D7F8C9363
:100E900026C0A5E5B0E0E5E5F0E080818E7F8C938B
:100EA000A5E5B0E0E5E5F0E0808182608C9317C0B5
:100EB000A5E5B0E0E5E5F0E0808183608C930FC0AC
:100EC00083E089830CC0EA81FB818081813039F421
:100ED000ABE5B0E0EBE5F0E080818F7B8C938A811D
:100EE0009B81FC0132968081882309F05BC0ABE5D1
:100EF000B0E0EBE5F0E0808180688C938A819B8193
:100F0000FC0132968181282F30E03F832E838E8131
:100F10009F8181309105E9F02E813F81223031059A
:100F20002CF48E819F81009761F039C02E813F8122
:100F300022303105E9F08E819F818330910539F1AE
:100F40002EC0A5E5B0E0E5E5F0E08081837F8C93DD
:100F500035C0A5E5B0E0E5E5F0E0808184608C93E4
:100F6000A5E5B0E0E5E5F0E08081877F8C9326C0C1
:100F7000A5E5B0E0E5E5F0E080818B7F8C93A5E509
:100F8000B0E0E5E5F0E0808188608C9317C0A5E5CE
:100F9000B0E0E5E5F0E080818C608C930FC083E0E9
:100FA00089830CC0EA81FB818081813039F4ABE513
:100FB000B0E0EBE5F0E080818F778C938A819B81B4
:100FC000FC0134968081882371F5ABE5B0E0EBE558
:100FD000F0E0808180628C938A819B81FC01349651
:100FE0008181282F30E03D832C838C819D8182304C
:100FF000910531F02C813D812330310549F010C03D
:10100000A4E5B0E0E4E5F0E080818F7B8C9319C02B
:10101000A4E5B0E0E4E5F0E0808180648C9311C049
:1010200083E089830EC08A819B81FC013496808194
:10103000813039F4ABE5B0E0EBE5F0E080818F7D05
:101040008C93898129960FB6F894DEBF0FBECDBF71
:10105000CF91DF910895DF93CF93CDB7DEB7299776
:101060000FB6F894DEBF0FBECDBF8A836B8382E0DC
:1010700089838A81882309F053C08B81282F30E02F
:10108000398728878885998581309105F1F02885F1
:101090003985223031052CF488859985009761F0D7
:1010A0003DC02885398522303105F9F0888599853C
:1010B0008330910551F132C0A5E5B0E0E5E5F0E0FF
:1010C00080818C7F8C9319822BC0A5E5B0E0E5E58B
:1010D000F0E0808181608C93A5E5B0E0E5E5F0E08B
:1010E00080818D7F8C9319821BC0A5E5B0E0E5E57A
:1010F000F0E080818E7F8C93A5E5B0E0E5E5F0E03F
:10110000808182608C9319820BC0A5E5B0E0E5E593
:10111000F0E0808183608C93198202C083E0898330
:101120008A81813009F053C08B81282F30E03F83C2
:101130002E838E819F8181309105F1F02E813F8138
:10114000223031052CF48E819F81009761F03DC0E3
:101150002E813F8122303105F9F08E819F818330CD
:10116000910551F132C0A5E5B0E0E5E5F0E0808100
:10117000837F8C9319822BC0A5E5B0E0E5E5F0E014
:10118000808184608C93A5E5B0E0E5E5F0E08081A6
:10119000877F8C9319821BC0A5E5B0E0E5E5F0E000
:1011A00080818B7F8C93A5E5B0E0E5E5F0E0808160
:1011B00088608C9319820BC0A5E5B0E0E5E5F0E00E
:1011C00080818C608C93198202C083E089838A813C
:1011D000823021F58B81282F30E03D832C838C8158
:1011E0009D818230910531F02C813D812330310584
:1011F00051F012C0A4E5B0E0E4E5F0E080818F7B1F
:101200008C9319820BC0A4E5B0E0E4E5F0E08081A6
:1012100080648C93198202C083E089838981299636
:101220000FB6F894DEBF0FBECDBFCF91DF9108950A
:10123000DF93CF9300D000D0CDB7DEB78A8382E0B2
:1012400089838A81282F30E03C832B838B819C818A
:101250008130910591F02B813C8122303105B1F034
:101260008B819C810097D9F4ABE5B0E0EBE5F0E031
:10127000808180648C93198214C0ABE5B0E0EBE50B
:10128000F0E0808180688C9319820BC0ABE5B0E000
:10129000EBE5F0E0808180628C93198202C083E0EC
:1012A000898389810F900F900F900F90CF91DF91DC
:1012B0000895DF93CF9300D000D0CDB7DEB78A83F7
:1012C00082E089838A81282F30E03C832B838B81C5
:1012D0009C818130910591F02B813C812230310538
:1012E000B1F08B819C810097D9F4ABE5B0E0EBE5E0
:1012F000F0E080818F7B8C93198214C0ABE5B0E065
:10130000EBE5F0E080818F778C9319820BC0ABE521
:10131000B0E0EBE5F0E080818F7D8C93198202C014
:1013200083E0898389810F900F900F900F90CF9168
:10133000DF910895DF93CF9300D000D0CDB7DEB713
:101340009B838A836C8382E089838A819B81009757
:10135000F9F08C81882339F48A819B81909305016F
:101360008093040119828C81813039F48A819B81B8
:10137000909307018093060119828C81823051F489
:101380008A819B819093090180930801198202C090
:1013900084E0898389810F900F900F900F90CF91F7
:1013A000DF9108951F920F920FB60F9211242F9381
:1013B0003F934F935F936F937F938F939F93AF93DD
:1013C000BF93EF93FF93DF93CF93CDB7DEB78091B9
:1013D000040190910501009729F0E0910401F0913A
:1013E00005010995CF91DF91FF91EF91BF91AF91E9
:1013F0009F918F917F916F915F914F913F912F912D
:101400000F900FBE0F901F9018951F920F920FB65E
:101410000F9211242F933F934F935F936F937F937A
:101420008F939F93AF93BF93EF93FF93DF93CF93EC
:10143000CDB7DEB78091060190910701009729F0A2
:10144000E0910601F09107010995CF91DF91FF919D
:10145000EF91BF91AF919F918F917F916F915F912C
:101460004F913F912F910F900FBE0F901F901895A5
:101470001F920F920FB60F9211242F933F934F9309
:101480005F936F937F938F939F93AF93BF93EF93EC
:10149000FF93DF93CF93CDB7DEB780910801909192
:1014A0000901009729F0E0910801F09109010995DF
:1014B000CF91DF91FF91EF91BF91AF919F918F916C
:1014C0007F916F915F914F913F912F910F900FBE40
:1014D0000F901F901895DF93CF930F92CDB7DEB783
:1014E00082E08983EAE3F0E085E58083EBE3F0E0E6
:1014F0008AE88083E7E3F0E084E58083E8E3F0E0D6
:1015000085E78083E4E3F0E085E98083E5E3F0E0CC
:1015100088E68083E1E3F0E08DE68083E2E3F0E0BB
:101520008DE4808389810F90CF91DF910895DF93BF
:10153000CF9300D000D000D0CDB7DEB78A836B83C5
:101540004C8382E089838A81843008F0D2C08B8109
:10155000883008F0CEC08C81813021F08C818823C6
:1015600009F0C7C08A81282F30E03E832D836D812A
:101570007E816130710509F441C08D819E81823088
:10158000910534F42D813E812115310571F0B3C0F0
:101590006D817E816230710509F459C08D819E8113
:1015A0008330910509F47CC0A6C0AAE3B0E0EAE369
:1015B000F0E08081482F8B81282F30E081E090E09F
:1015C00002C0880F991F2A95E2F7809584238C9397
:1015D000AAE3B0E0EAE3F0E08081482F8C81282F75
:1015E00030E08B81882F90E0B90102C0660F771F31
:1015F0008A95E2F7CB01842B8C937DC0A7E3B0E002
:10160000E7E3F0E08081482F8B81282F30E081E0F4
:1016100090E002C0880F991F2A95E2F780958423F5
:101620008C93A7E3B0E0E7E3F0E08081482F8C8162
:10163000282F30E08B81882F90E0B90102C0660F1F
:10164000771F8A95E2F7CB01842B8C9354C0A4E3D7
:10165000B0E0E4E3F0E08081482F8B81282F30E078
:1016600081E090E002C0880F991F2A95E2F78095EB
:1016700084238C93A4E3B0E0E4E3F0E08081482F7E
:101680008C81282F30E08B81882F90E0B90102C037
:10169000660F771F8A95E2F7CB01842B8C932BC0C2
:1016A000A1E3B0E0E1E3F0E08081482F8B81282FB7
:1016B00030E081E090E002C0880F991F2A95E2F7A0
:1016C000809584238C93A1E3B0E0E1E3F0E0808196
:1016D000482F8C81282F30E08B81882F90E0B90132
:1016E00002C0660F771F8A95E2F7CB01842B8C939B
:1016F00002C083E08983898126960FB6F894DEBF05
:101700000FBECDBFCF91DF910895DF93CF9300D06F
:1017100000D00F92CDB7DEB78A836B8382E08983D6
:101720008A81843008F073C08B81883008F06FC0E4
:101730008A81282F30E03D832C838C819D818130EC
:10174000910549F12C813D81223031052CF48C81A9
:101750009D81009761F05DC02C813D812230310573
:1017600071F18C819D8183309105E9F152C0ABE329
:10177000B0E0EBE3F0E08081482F8B81282F30E050
:1017800081E090E0022E02C0880F991F0A94E2F7D0
:1017900084278C933EC0A8E3B0E0E8E3F0E08081CA
:1017A000482F8B81282F30E081E090E0022E02C08C
:1017B000880F991F0A94E2F784278C932AC0A5E327
:1017C000B0E0E5E3F0E08081482F8B81282F30E006
:1017D00081E090E0022E02C0880F991F0A94E2F780
:1017E00084278C9316C0A2E3B0E0E2E3F0E08081AE
:1017F000482F8B81282F30E081E090E0022E02C03C
:10180000880F991F0A94E2F784278C9302C083E023
:10181000898389810F900F900F900F900F90CF9137
:10182000DF910895DF93CF9300D000D000D0CDB7E3
:10183000DEB78A836B834C8382E089838A8184301C
:1018400008F0D2C08B81883008F0CEC08C81823005
:1018500020F08C81882309F0C7C08A81282F30E0CE
:101860003E832D836D817E816130710509F441C015
:101870008D819E818230910534F42D813E81211528
:10188000310571F0B3C06D817E816230710509F45C
:1018900059C08D819E818330910509F47CC0A6C01A
:1018A000ABE3B0E0EBE3F0E08081482F8B81282FA1
:1018B00030E081E090E002C0880F991F2A95E2F79E
:1018C000809584238C93ABE3B0E0EBE3F0E0808180
:1018D000482F8C81282F30E08B81882F90E0B90130
:1018E00002C0660F771F8A95E2F7CB01842B8C9399
:1018F0007DC0A8E3B0E0E8E3F0E08081482F8B8171
:10190000282F30E081E090E002C0880F991F2A95CF
:10191000E2F7809584238C93A8E3B0E0E8E3F0E05D
:101920008081482F8C81282F30E08B81882F90E098
:10193000B90102C0660F771F8A95E2F7CB01842BAD
:101940008C9354C0A5E3B0E0E5E3F0E08081482F3C
:101950008B81282F30E081E090E002C0880F991F32
:101960002A95E2F7809584238C93A5E3B0E0E5E324
:10197000F0E08081482F8C81282F30E08B81882FE8
:1019800090E0B90102C0660F771F8A95E2F7CB019C
:10199000842B8C932BC0A2E3B0E0E2E3F0E08081E3
:1019A000482F8B81282F30E081E090E002C0880F23
:1019B000991F2A95E2F7809584238C93A2E3B0E0E7
:1019C000E2E3F0E08081482F8C81282F30E08B818A
:1019D000882F90E0B90102C0660F771F8A95E2F761
:1019E000CB01842B8C9302C083E089838981269666
:1019F0000FB6F894DEBF0FBECDBFCF91DF91089533
:101A0000DF93CF93CDB7DEB727970FB6F894DEBF3D
:101A10000FBECDBF8A836B835D834C8382E0898355
:101A20008C819D81009709F47BC08A81843008F005
:101A300079C08B81883008F075C08A81282F30E00A
:101A40003F832E834E815F814130510559F18E8154
:101A50009F818230910534F42E813F81211531051B
:101A600069F05BC04E815F814230510579F18E8112
:101A70009F818330910509F43DC04FC0E9E3F0E058
:101A80008081282F30E08B81882F90E0A90102C04F
:101A9000559547958A95E2F7CA018170EC81FD81E1
:101AA00080833BC0E6E3F0E08081282F30E08B812B
:101AB000882F90E0A90102C0559547958A95E2F7D5
:101AC000CA018170EC81FD81808327C0E3E3F0E0EF
:101AD0008081282F30E08B81882F90E0A90102C0FF
:101AE000559547958A95E2F7CA018170EC81FD8191
:101AF000808313C0E0E3F0E08081282F30E08B8109
:101B0000882F90E0A90102C0559547958A95E2F784
:101B1000CA018170EC81FD81808383E0898302C0EA
:101B200084E08983898127960FB6F894DEBF0FBEC3
:101B3000CDBFCF91DF910895DF93CF9300D000D038
:101B40000F92CDB7DEB78A836B8382E089838A8167
:101B5000843008F056C08B81813021F08B8188233E
:101B600009F04FC08A81282F30E03D832C838C817F
:101B70009D818130910509F12C813D812230310513
:101B80002CF48C819D81009761F03DC02C813D81BA
:101B900022303105F1F08C819D818330910529F14E
:101BA00032C08B81813029F4EAE3F0E08FEF80834B
:101BB0002AC0EAE3F0E0108226C08B81813029F44C
:101BC000E7E3F0E08FEF80831EC0E7E3F0E01082F0
:101BD0001AC08B81813029F4E4E3F0E08FEF808339
:101BE00012C0E4E3F0E010820EC08B81813029F452
:101BF000E1E3F0E08FEF808306C0E1E3F0E01082E4
:101C000002C083E0898389810F900F900F900F901D
:101C10000F90CF91DF910895DF93CF9300D000D044
:101C20000F92CDB7DEB78A836B8382E089838A8186
:101C3000843098F58A81282F30E03D832C838C8175
:101C40009D8181309105D1F02C813D81223031057B
:101C50002CF48C819D81009761F021C02C813D8105
:101C60002230310581F08C819D818330910581F096
:101C700016C0EBE3F0E08B81808311C0E8E3F0E075
:101C80008B8180830CC0E5E3F0E08B81808307C00B
:101C9000E2E3F0E08B81808302C083E08983898165
:101CA0000F900F900F900F900F90CF91DF910895AC
:101CB000DF93CF9300D000D000D0CDB7DEB78A83BA
:101CC0007C836B8382E089838B819C81009709F4FC
:101CD00041C08A818430D8F58A81282F30E03E8344
:101CE0002D838D819E8181309105E1F02D813E8192
:101CF000223031052CF48D819E81009761F02CC03B
:101D00002D813E8122303105A1F08D819E8183306D
:101D10009105B1F021C0EBE3F0E08081EB81FC8123
:101D200080831AC0E8E3F0E08081EB81FC8180834E
:101D300013C0E5E3F0E08081EB81FC8180830CC07F
:101D4000E2E3F0E08081EB81FC81808305C083E0E9
:101D5000898302C084E08983898126960FB6F8942E
:101D6000DEBF0FBECDBFCF91DF910895DF93CF933C
:101D7000CDB7DEB7E9970FB6F894DEBF0FBECDBF83
:101D800082E089AF81E061E041E00E94970A81E052
:101D900062E041E00E94970A81E063E041E00E9436
:101DA000970A80E067E041E00E94970A80E066E0E1
:101DB00041E00E94970A80E065E041E00E94970AB6
:101DC00080E064E041E00E94970A80E090E0ACE0AF
:101DD000B2E48DAB9EABAFABB8AF6DA97EA98FA9B6
:101DE00098AD20E030E04AE755E40E941F02DC0194
:101DF000CB0189AB9AABABABBCAB69A97AA98BA978
:101E00009CA920E030E040E85FE30E94790388234A
:101E10002CF481E090E098AB8FA73FC069A97AA924
:101E20008BA99CA920E03FEF4FE757E40E941903DC
:101E300018164CF56DA97EA98FA998AD20E030E069
:101E400040E251E40E941F02DC01CB01BC01CD0144
:101E50000E944900DC01CB0198AB8FA70FC080E93D
:101E600091E09EA78DA78DA59EA50197F1F79EA74E
:101E70008DA78FA598A9019798AB8FA78FA598A933
:101E8000009769F714C069A97AA98BA99CA90E9437
:101E90004900DC01CB0198AB8FA78FA598A99CA71F
:101EA0008BA78BA59CA50197F1F79CA78BA781E039
:101EB00061E040E00E94120C88E20E94D71080E0AE
:101EC00090E0A0E8BFE38FA398A7A9A7BAA76FA146
:101ED00078A589A59AA520E030E04AE755E40E945C
:101EE0001F02DC01CB018BA39CA3ADA3BEA36BA1FE
:101EF0007CA18DA19EA120E030E040E85FE30E943C
:101F0000790388232CF481E090E09AA389A33FC051
:101F10006BA17CA18DA19EA120E03FEF4FE757E48C
:101F20000E94190318164CF56FA178A589A59AA5EA
:101F300020E030E040E251E40E941F02DC01CB01CE
:101F4000BC01CD010E944900DC01CB019AA389A309
:101F50000FC080E991E098A38F8F8F8D98A1019792
:101F6000F1F798A38F8F89A19AA101979AA389A3CA
:101F700089A19AA1009769F714C06BA17CA18DA1DA
:101F80009EA10E944900DC01CB019AA389A389A1EB
:101F90009AA19E8F8D8F8D8D9E8D0197F1F79E8FCB
:101FA0008D8F81E061E040E00E94120C8CE00E9485
:101FB000D71080E090E0A0E8BFE3898F9A8FAB8FC5
:101FC000BC8F698D7A8D8B8D9C8D20E030E04AE747
:101FD00055E40E941F02DC01CB018D8B9E8BAF8BE1
:101FE000B88F6D897E898F89988D20E030E040E838
:101FF0005FE30E94790388232CF481E090E09C8BBE
:102000008B8B3FC06D897E898F89988D20E03FEF53
:102010004FE757E40E94190318164CF5698D7A8D25
:102020008B8D9C8D20E030E040E251E40E941F0245
:10203000DC01CB01BC01CD010E944900DC01CB01D8
:102040009C8B8B8B0FC080E991E09A8B898B89895F
:102050009A890197F1F79A8B898B8B899C890197D3
:102060009C8B8B8B8B899C89009769F714C06D8939
:102070007E898F89988D0E944900DC01CB019C8B61
:102080008B8B8B899C89988B8F878F8598890197FB
:10209000F1F7988B8F8781E061E040E00E94120C9D
:1020A00081E00E94D71080E090E0A0E0B0E48B8750
:1020B0009C87AD87BE876B857C858D859E8520E05E
:1020C00030E04AE755E40E941F02DC01CB018F8318
:1020D0009887A987BA876F81788589859A8520E056
:1020E00030E040E85FE30E94790388232CF481E02C
:1020F00090E09E838D833FC06F81788589859A8526
:1021000020E03FEF4FE757E40E94190318164CF503
:102110006B857C858D859E8520E030E040E251E432
:102120000E941F02DC01CB01BC01CD010E944900CD
:10213000DC01CB019E838D830FC080E991E09C83FD
:102140008B838B819C810197F1F79C838B838D819D
:102150009E8101979E838D838D819E81009769F773
:1021600014C06F81788589859A850E944900DC01B9
:10217000CB019E838D838D819E819A838983898102
:102180009A810197F1F79A83898381E061E040E0C9
:102190000E94120C86E00E94D71089ADE9960FB616
:1021A000F894DEBF0FBECDBFCF91DF9108950F939E
:1021B0001F93DF93CF93CDB7DEB7C755D0400FB68F
:1021C000F894DEBF0FBECDBFFE01E95AFF4F8083FA
:1021D000FE01EB5AFF4F82E0808381E062E040E045
:1021E0000E94120C81E063E040E00E94120CFE01AC
:1021F000E95AFF4F8081883209F088C19E012A5A2E
:102200003F4F81E061E0A9010E94000DFE01EA5A02
:10221000FF4F8081882309F079C1FE01E95AFF4F01
:102220008081982F991F9927991F80E067E0492F97
:102230000E94120CFE01E95AFF4F8081829586951B
:1022400086958370982F917080E066E0492F0E94F8
:10225000120CFE01E95AFF4F8081829586958770A6
:10226000982F917080E065E0492F0E94120CFE01CA
:10227000E95AFF4F808182958F70982F917080E08E
:1022800064E0492F0E94120C81E063E041E00E946B
:10229000120CFE01EF5AFF4F80E090E0A0E8BFE390
:1022A00080839183A283B3838E01035B1F4FFE0162
:1022B000EF5AFF4F608171818281938120E030E08D
:1022C0004AE755E40E941F02DC01CB01F80180833C
:1022D0009183A283B383FE01E35BFF4F6081718131
:1022E0008281938120E030E040E85FE30E9479033F
:1022F000882344F4FE01E55BFF4F81E090E0918389
:10230000808364C0FE01E35BFF4F60817181828145
:10231000938120E03FEF4FE757E40E94190318161E
:102320000CF043C0FE01EF5AFF4F60817181828142
:10233000938120E030E040E251E40E941F02DC0182
:10234000CB018E01055B1F4FBC01CD010E944900EE
:10235000DC01CB01F801918380831FC0FE01E75BA4
:10236000FF4F80E991E091838083FE01E75BFF4F9F
:10237000808191810197F1F7FE01E75BFF4F918327
:102380008083DE01A55BBF4FFE01E55BFF4F8081CF
:102390009181019711969C938E93FE01E55BFF4F0F
:1023A000808191810097D1F627C08E01055B1F4F78
:1023B000FE01E35BFF4F60817181828193810E9406
:1023C0004900DC01CB01F80191838083DE01A95B28
:1023D000BF4FFE01E55BFF4F808191818D939C9300
:1023E000FE01E95BFF4F808191810197F1F7FE01CA
:1023F000E95BFF4F9183808381E063E040E00E94CE
:10240000120CFE01ED5BFF4F80E090E0A0E8BFE31F
:1024100080839183A283B3838E01015C1F4FFE01F1
:10242000ED5BFF4F608171818281938120E030E01C
:102430004AE755E40E941F02DC01CB01F8018083CA
:102440009183A283B383FE01FF96608171818281B3
:10245000938120E030E040E85FE30E947903882325
:102460002CF481E090E09EAF8DAF46C0FE01FF9658
:10247000608171818281938120E03FEF4FE757E4D3
:102480000E941903181664F5FE01ED5BFF4F608191
:1024900071818281938120E030E040E251E40E942A
:1024A0001F02DC01CB01BC01CD010E944900DC010F
:1024B000CB019EAF8DAF0FC080E991E09CAF8BAF99
:1024C0008BAD9CAD0197F1F79CAF8BAF8DAD9EAD01
:1024D00001979EAF8DAF8DAD9EAD009769F716C089
:1024E000FE01FF9660817181828193810E94490083
:1024F000DC01CB019EAF8DAF8DAD9EAD9AAF89AFA4
:1025000089AD9AAD0197F1F79AAF89AFFE01E95A0B
:10251000FF4F8081982F991F9927991F80E067E0CE
:10252000492F0E94120CFE01E95AFF4F80818295CB
:10253000869586958370982F917080E066E0492F8C
:102540000E94120CFE01E95AFF4F80818295869508
:102550008770982F917080E065E0492F0E94120CDF
:10256000FE01E95AFF4F808182958F70982F9170FC
:1025700080E064E0492F0E94120C81E063E041E0BA
:102580000E94120C80E090E0A0E8BFE38DAB9EAB10
:10259000AFABB8AF6DA97EA98FA998AD20E030E0B0
:1025A0004AE755E40E941F02DC01CB0189AB9AABDC
:1025B000ABABBCAB69A97AA98BA99CA920E030E0A0
:1025C00040E85FE30E94790388232CF481E090E0E7
:1025D00098AB8FA73FC069A97AA98BA99CA920E0D5
:1025E0003FEF4FE757E40E94190318164CF56DA909
:1025F0007EA98FA998AD20E030E040E251E40E942E
:102600001F02DC01CB01BC01CD010E944900DC01AD
:10261000CB0198AB8FA70FC080E991E09EA78DA753
:102620008DA59EA50197F1F79EA78DA78FA598A9C7
:10263000019798AB8FA78FA598A9009769F714C049
:1026400069A97AA98BA99CA90E944900DC01CB0148
:1026500098AB8FA78FA598A99CA78BA78BA59CA5A6
:102660000197F1F79CA78BA781E063E040E00E940F
:10267000120C80E090E0A0E8BFE38FA398A7A9A781
:10268000BAA76FA178A589A59AA520E030E04AE70E
:1026900055E40E941F02DC01CB018BA39CA3ADA3D8
:1026A000BEA36BA17CA18DA19EA120E030E040E8FB
:1026B0005FE30E94790388232CF481E090E09AA3E1
:1026C00089A33FC06BA17CA18DA19EA120E03FEF1B
:1026D0004FE757E40E94190318164CF56FA178A52F
:1026E00089A59AA520E030E040E251E40E941F0253
:1026F000DC01CB01BC01CD010E944900DC01CB0112
:102700009AA389A30FC080E991E098A38F8F8F8D42
:1027100098A10197F1F798A38F8F89A19AA10197AA
:102720009AA389A389A19AA1009769F714C06BA104
:102730007CA18DA19EA10E944900DC01CB019AA33E
:1027400089A389A19AA19E8F8D8F8D8D9E8D0197D2
:10275000F1F79E8F8D8FFE01E95AFF4F808186959C
:1027600086958695982F917080E067E0492F0E94AA
:10277000120CFE01E95AFF4F808186958695982FAD
:10278000917080E066E0492F0E94120CFE01E95A28
:10279000FF4F80818695982F917080E065E0492FEA
:1027A0000E94120CFE01E95AFF4F8081982F917010
:1027B00080E064E0492F0E94120C81E063E041E078
:1027C0000E94120C80E090E0A0E8BFE3898F9A8F0E
:1027D000AB8FBC8F698D7A8D8B8D9C8D20E030E026
:1027E0004AE755E40E941F02DC01CB018D8B9E8BD2
:1027F000AF8BB88F6D897E898F89988D20E030E00E
:1028000040E85FE30E94790388232CF481E090E0A4
:102810009C8B8B8B3FC06D897E898F89988D20E042
:102820003FEF4FE757E40E94190318164CF5698DE6
:102830007A8D8B8D9C8D20E030E040E251E40E9447
:102840001F02DC01CB01BC01CD010E944900DC016B
:10285000CB019C8B8B8B0FC080E991E09A8B898B8D
:1028600089899A890197F1F79A8B898B8B899C8941
:1028700001979C8B8B8B8B899C89009769F714C07F
:102880006D897E898F89988D0E944900DC01CB017A
:102890009C8B8B8B8B899C89988B8F878F85988954
:1028A0000197F1F7988B8F8781E063E040E00E9409
:1028B000120C80E090E0A0E8BFE38B879C87AD8797
:1028C000BE876B857C858D859E8520E030E04AE75C
:1028D00055E40E941F02DC01CB018F839887A987F2
:1028E000BA876F81788589859A8520E030E040E855
:1028F0005FE30E94790388232CF481E090E09E83BB
:102900008D833FC06F81788589859A8520E03FEF70
:102910004FE757E40E94190318164CF56B857C8528
:102920008D859E8520E030E040E251E40E941F0248
:10293000DC01CB01BC01CD010E944900DC01CB01CF
:102940009E838D830FC080E991E09C838B838B8174
:102950009C810197F1F79C838B838D819E810197E8
:102960009E838D838D819E81009769F714C06F814E
:10297000788589859A850E944900DC01CB019E8378
:102980008D838D819E819A83898389819A81019724
:10299000F1F79A838983FE01EB5AFF4F8081C95A70
:1029A000DF4F0FB6F894DEBF0FBECDBFCF91DF91E2
:1029B0001F910F910895DF93CF9300D0CDB7DEB76D
:1029C0008A8382E0898381E061E041E00E94120C09
:1029D0008A810E94D71089810F900F90CF91DF914B
:1029E0000895DF93CF9300D0CDB7DEB78A8382E01E
:1029F000898381E061E040E00E94120C8A810E949C
:102A0000D71089810F900F90CF91DF910895DF93B8
:102A1000CF9300D00F92CDB7DEB79B838A8382E03D
:102A2000898310C081E061E041E00E94120CEA81DC
:102A3000FB8120818A819B8101969B838A83822FDF
:102A40000E94D710EA81FB818081882359F7898110
:102A50000F900F900F90CF91DF910895DF93CF9358
:102A6000CDB7DEB76D970FB6F894DEBF0FBECDBF02
:102A700082E08D8F80E090E0A0E8BFE3898F9A8F9D
:102A8000AB8FBC8F698D7A8D8B8D9C8D20E030E073
:102A90004AE755E40E941F02DC01CB018D8B9E8B1F
:102AA000AF8BB88F6D897E898F89988D20E030E05B
:102AB00040E85FE30E94790388232CF481E090E0F2
:102AC0009C8B8B8B3FC06D897E898F89988D20E090
:102AD0003FEF4FE757E40E94190318164CF5698D34
:102AE0007A8D8B8D9C8D20E030E040E251E40E9495
:102AF0001F02DC01CB01BC01CD010E944900DC01B9
:102B0000CB019C8B8B8B0FC080E991E09A8B898BDA
:102B100089899A890197F1F79A8B898B8B899C898E
:102B200001979C8B8B8B8B899C89009769F714C0CC
:102B30006D897E898F89988D0E944900DC01CB01C7
:102B40009C8B8B8B8B899C89988B8F878F859889A1
:102B50000197F1F7988B8F8781E061E040E00E9458
:102B6000120C81E00E94D71080E090E0A0E0B0E479
:102B70008B879C87AD87BE876B857C858D859E8581
:102B800020E030E04AE755E40E941F02DC01CB015F
:102B90008F839887A987BA876F81788589859A8579
:102BA00020E030E040E85FE30E94790388232CF4C2
:102BB00081E090E09E838D833FC06F817885898519
:102BC0009A8520E03FEF4FE757E40E94190318165B
:102BD0004CF56B857C858D859E8520E030E040E25C
:102BE00051E40E941F02DC01CB01BC01CD010E9417
:102BF0004900DC01CB019E838D830FC080E991E009
:102C00009C838B838B819C810197F1F79C838B83C1
:102C10008D819E8101979E838D838D819E810097FA
:102C200069F714C06F81788589859A850E9449006B
:102C3000DC01CB019E838D838D819E819A83898364
:102C400089819A810197F1F79A8389838D8D6D9699
:102C50000FB6F894DEBF0FBECDBFCF91DF910895C0
:102C6000DF93CF9300D00F92CDB7DEB78A836B830B
:102C700082E089838A81813059F481E061E040E01B
:102C80000E94120C8B8180580E94D710198210C0AC
:102C90008A81823059F481E061E040E00E94120CA8
:102CA0008B8180540E94D710198202C083E08983EF
:102CB00089810F900F900F90CF91DF910895DF934E
:102CC000CF93CDB7DEB72F970FB6F894DEBF0FBE08
:102CD000CDBF6C877D878E879F8782E08B871B8225
:102CE0001C821D821E821A828C859D85AE85BF85C1
:102CF000BB230CF059C081E061E041E00E94120C5E
:102D00008DE20E94D7108C859D85AE85BF85B095DC
:102D1000A095909581959F4FAF4FBF4F8C879D8712
:102D2000AE87BF8741C08C859D85AE85BF852AE073
:102D300030E040E050E0BC01CD010E94781EDC0193
:102D4000CB018F839887A987BA878B819C81AD81BE
:102D5000BE812AE030E040E050E0BC01CD010E949D
:102D6000371E9B01AC018F819885A985BA85820F9A
:102D7000931FA41FB51F8B839C83AD83BE838A8161
:102D80008F5F8A838C859D85AE85BF852AE030E084
:102D900040E050E0BC01CD010E94781EDA01C9017B
:102DA0008C879D87AE87BF878C859D85AE85BF85C7
:102DB000181619061A061B060CF4B5CF2DC08B8108
:102DC0009C81AD81BE812AE030E040E050E0BC0152
:102DD000CD010E94561EDC01CB01898381E061E0B8
:102DE00041E00E94120C8981805D0E94D7108A8187
:102DF00081508A838B819C81AD81BE812AE030E045
:102E000040E050E0BC01CD010E94561EDA01C9012C
:102E10008B839C83AD83BE838A81882381F68B85D7
:102E20002F960FB6F894DEBF0FBECDBFCF91DF91C6
:102E30000895DF93CF93CDB7DEB727970FB6F894F9
:102E4000DEBF0FBECDBF9D838C836E834F8382E038
:102E50008B8381E061E040E00E94120C80E40E94DC
:102E6000D7101A8213C081E061E041E00E94120C89
:102E70008A81282F30E08C819D81FC01E20FF31FB5
:102E800080810E94D7108A818F5F8A838A81282F50
:102E900030E08E81882F90E0880F991F880F991F4E
:102EA000880F991F28173907F4F281E061E040E0AC
:102EB0000E94120C8F81843021F486E00E94D7108A
:102EC00003C084E00E94D71019820BC081E061E04A
:102ED00041E00E94120C89810E94D71089818F5F86
:102EE000898399818E81981788F38B8127960FB6F5
:102EF000F894DEBF0FBECDBFCF91DF910895DF9371
:102F0000CF9300D000D000D0CDB7DEB79C838B83A9
:102F10006D834E8382E08A838D818830D0F581E095
:102F200061E040E00E94120C8D81882F90E00896AD
:102F3000880F991F880F991F880F991F0E94D7101B
:102F4000198213C081E061E041E00E94120C898186
:102F5000282F30E08B819C81FC01E20FF31F8081E0
:102F60000E94D71089818F5F89838981883050F3CF
:102F700081E061E040E00E94120C8E8180580E9446
:102F8000D71081E061E041E00E94120C8D810E9427
:102F9000D7108A8126960FB6F894DEBF0FBECDBF3C
:102FA000CF91DF910895DF93CF9300D000D0CDB7BC
:102FB000DEB79B838A836C8381E061E040E00E94FE
:102FC000120C8C81882F90E00896880F991F880F2B
:102FD000991F880F991F0E94D710198213C081E092
:102FE00061E041E00E94120C8981282F30E08A8143
:102FF0009B81FC01E20FF31F80810E94D710898121
:103000008F5F89838981883050F30F900F900F90E4
:103010000F90CF91DF910895DF93CF9300D00F925F
:10302000CDB7DEB789836A834B8381E061E040E0FE
:103030000E94120C8A81813021F48B8180580E9479
:10304000D7108B81823021F48B8180540E94D7105D
:1030500081E061E041E00E94120C89810E94D7105A
:103060000F900F900F90CF91DF910895DF93CF9342
:103070000F92CDB7DEB782E0898382E064E041E061
:103080000E94970A82E065E041E00E94970A82E090
:1030900066E041E00E94970A82E067E041E00E941A
:1030A000970A82E060E040E00E94970A82E061E0D7
:1030B00040E00E94970A82E062E040E00E94970AA6
:1030C00082E063E040E00E94970A82E064E041E031
:1030D0000E94120C82E065E041E00E94120C82E046
:1030E00066E041E00E94120C82E067E041E00E944D
:1030F000120C82E060E041E00E94120C82E061E08C
:1031000041E00E94120C82E062E041E00E94120C59
:1031100082E063E041E00E94120C89810F90CF9120
:10312000DF910895DF93CF93CDB7DEB7EA970FB65F
:10313000F894DEBF0FBECDBF9CAB8BAB82E0898B1A
:1031400082E08A8B82E08B8B82E08C8B82E08D8B9D
:1031500084E08E8B85E08F8B86E0888F87E0898F77
:1031600082E08A8F82E08B8F82E08C8F82E08D8F6D
:103170001E8E81E08F8F82E088A383E089A3EBA974
:10318000FCA98FEF808344C1188A3EC18889282F0B
:1031900030E0CE014296FC01E20FF31F40818889A6
:1031A000282F30E0CE014696FC01E20FF31F9081FC
:1031B000842F692F40E00E94120C1F8607C18F8563
:1031C000282F30E0CE014A96FC01E20FF31F408128
:1031D0008F85282F30E0CE014E96FC01E20FF31FC1
:1031E00090819E012E5D3F4F842F692FA9010E947F
:1031F000000D8AA1882309F0E6C080E090E0A0E2FB
:10320000B1E48B879C87AD87BE876B857C858D8578
:103210009E8520E030E04AE755E40E941F02DC0171
:10322000CB018F839887A987BA876F817885898535
:103230009A8520E030E040E85FE30E94790388232C
:103240002CF481E090E09E838D833FC06F81788570
:1032500089859A8520E03FEF4FE757E40E941903E4
:1032600018164CF56B857C858D859E8520E030E0B9
:1032700040E251E40E941F02DC01CB01BC01CD0100
:103280000E944900DC01CB019E838D830FC080E941
:1032900091E09C838B838B819C810197F1F79C83C8
:1032A0008B838D819E8101979E838D838D819E81ED
:1032B000009769F714C06F81788589859A850E9487
:1032C0004900DC01CB019E838D838D819E819A8391
:1032D000898389819A810197F1F79A8389838F8500
:1032E000282F30E0CE014A96FC01E20FF31F408107
:1032F0008F85282F30E0CE014E96FC01E20FF31FA0
:1033000090819E012E5D3F4F842F692FA9010E945D
:10331000000D8AA1882309F056C01AC08F85282F76
:1033200030E0CE014A96FC01E20FF31F40818F8509
:10333000282F30E0CE014E96FC01E20FF31F908162
:103340009E012E5D3F4F842F692FA9010E94000D21
:103350008AA1882319F3CE0183969FAB8EABE3EF4E
:10336000F0E0F9AFE8AFF0E1FAAFE8ADF9AD008019
:1033700088AD99AD019699AF88AFEEA9FFA90082FB
:103380008EA99FA901969FAB8EAB9AAD91509AAF33
:10339000EAADEE2351F78F85282F30E08889482F3A
:1033A00050E0220F331F220F331FCE010196820FF0
:1033B000931F840F951FFC01B2968081EBA9FCA995
:1033C00080831DAA2DC08F858F5F8F878F85843066
:1033D00008F4F5CE8889282F30E0CE014296FC0112
:1033E000E20FF31F40818889282F30E0CE014696F6
:1033F000FC01E20FF31F9081842F692F41E00E94AE
:10340000120C88898F5F888B8889843008F4BECE3F
:10341000EBA9FCA980818F3F09F4B6CEF989FDABF9
:103420008DA9EA960FB6F894DEBF0FBECDBFCF913F
:10343000DF910895DF93CF93CDB7DEB70E94211EB1
:103440000E94B60E0E9436188CEE90E00E94F6069E
:1034500078948FE29AE160E00E949A09FFCF0F937F
:103460001F93DF93CF93CDB7DEB7C455D0400FB6CF
:10347000F894DEBF0FBECDBF80E062E041E00E9465
:10348000970A8091F200882309F473C31092F20026
:103490000E942E1581E060E00E94301680E690E0E8
:1034A0000E940715FE01EF5AFF4F80E090E0AAE767
:1034B000B4E480839183A283B3838E01035B1F4FA7
:1034C000FE01EF5AFF4F608171818281938120E07C
:1034D00030E04AE755E40E941F02DC01CB01F8010D
:1034E00080839183A283B383FE01E35BFF4F6081FE
:1034F00071818281938120E030E040E85FE30E94A7
:103500007903882344F4FE01E55BFF4F81E090E0FE
:103510009183808364C0FE01E35BFF4F6081718112
:103520008281938120E03FEF4FE757E40E94190327
:1035300018160CF043C0FE01EF5AFF4F60817181F5
:103540008281938120E030E040E251E40E941F023A
:10355000DC01CB018E01055B1F4FBC01CD010E9438
:103560004900DC01CB01F801918380831FC0FE017B
:10357000E75BFF4F80E991E091838083FE01E75B89
:10358000FF4F808191810197F1F7FE01E75BFF4FCB
:1035900091838083DE01A55BBF4FFE01E55BFF4F9A
:1035A00080819181019711969C938E93FE01E55B3A
:1035B000FF4F808191810097D1F627C08E01055B76
:1035C0001F4FFE01E35BFF4F608171818281938118
:1035D0000E944900DC01CB01F80191838083DE0168
:1035E000A95BBF4FFE01E55BFF4F808191818D9309
:1035F0009C93FE01E95BFF4F808191810197F1F778
:10360000FE01E95BFF4F918380830E942E1581E0CC
:1036100060E00E94301682E790E00E9407158FE07C
:1036200091E00E94A3058FE091E025E830E0B90128
:103630000E945C0680930C0180910C01882309F4A0
:10364000A3C080910E01833008F09EC081E080937A
:103650000D0181E060E00E9430168AE890E00E944F
:10366000071582E060E00E9430168AE990E00E942F
:103670000715FE01ED5BFF4F80E090E0AAEFB4E498
:1036800080839183A283B3838E01015C1F4FFE016F
:10369000ED5BFF4F608171818281938120E030E09A
:1036A0004AE755E40E941F02DC01CB01F801808348
:1036B0009183A283B383FE01FF9660817181828131
:1036C000938120E030E040E85FE30E9479038823A3
:1036D0002CF481E090E09EAF8DAF46C0FE01FF96D6
:1036E000608171818281938120E03FEF4FE757E451
:1036F0000E941903181664F5FE01ED5BFF4F60810F
:1037000071818281938120E030E040E251E40E94A7
:103710001F02DC01CB01BC01CD010E944900DC018C
:10372000CB019EAF8DAF0FC080E991E09CAF8BAF16
:103730008BAD9CAD0197F1F79CAF8BAF8DAD9EAD7E
:1037400001979EAF8DAF8DAD9EAD009769F716C006
:10375000FE01FF9660817181828193810E94490000
:10376000DC01CB019EAF8DAF8DAD9EAD9AAF89AF21
:1037700089AD9AAD0197F1F79AAF89AF0E942E15E6
:1037800081E08093F200F5C180910E018F5F8093FC
:103790000E0181E060E00E94301687EA90E00E940E
:1037A000071580E090E0AAE7B4E48DAB9EABAFAB29
:1037B000B8AF6DA97EA98FA998AD20E030E04AE7A7
:1037C00055E40E941F02DC01CB0189AB9AABABAB85
:1037D000BCAB69A97AA98BA99CA920E030E040E89C
:1037E0005FE30E94790388232CF481E090E098AB9A
:1037F0008FA73FC069A97AA98BA99CA920E03FEFB8
:103800004FE757E40E94190318164CF56DA97EA9DD
:103810008FA998AD20E030E040E251E40E941F0201
:10382000DC01CB01BC01CD010E944900DC01CB01D0
:1038300098AB8FA70FC080E991E09EA78DA78DA5BB
:103840009EA50197F1F79EA78DA78FA598A901972F
:1038500098AB8FA78FA598A9009769F714C069A99D
:103860007AA98BA99CA90E944900DC01CB0198ABE5
:103870008FA78FA598A99CA78BA78BA59CA501971F
:10388000F1F79CA78BA781E060E00E9430168AEBDD
:1038900090E00E94071580E090E0AAE7B4E48FA3CF
:1038A00098A7A9A7BAA76FA178A589A59AA520E08E
:1038B00030E04AE755E40E941F02DC01CB018BA3F4
:1038C0009CA3ADA3BEA36BA17CA18DA19EA120E072
:1038D00030E040E85FE30E94790388232CF481E024
:1038E00090E09AA389A33FC06BA17CA18DA19EA16A
:1038F00020E03FEF4FE757E40E94190318164CF5FC
:103900006FA178A589A59AA520E030E040E251E4B6
:103910000E941F02DC01CB01BC01CD010E944900C5
:10392000DC01CB019AA389A30FC080E991E098A3A1
:103930008F8F8F8D98A10197F1F798A38F8F89A111
:103940009AA101979AA389A389A19AA1009769F7DF
:1039500014C06BA17CA18DA19EA10E944900DC0135
:10396000CB019AA389A389A19AA19E8F8D8F8D8D5A
:103970009E8D0197F1F79E8F8D8F80910E01882388
:1039800009F443CE81E060E00E9430168DEC90E0B7
:103990000E94071580E090E0AAEFB3E4898F9A8F28
:1039A000AB8FBC8F698D7A8D8B8D9C8D20E030E044
:1039B0004AE755E40E941F02DC01CB018D8B9E8BF0
:1039C000AF8BB88F6D897E898F89988D20E030E02C
:1039D00040E85FE30E94790388232CF481E090E0C3
:1039E0009C8B8B8B3FC06D897E898F89988D20E061
:1039F0003FEF4FE757E40E94190318164CF5698D05
:103A00007A8D8B8D9C8D20E030E040E251E40E9465
:103A10001F02DC01CB01BC01CD010E944900DC0189
:103A2000CB019C8B8B8B0FC080E991E09A8B898BAB
:103A300089899A890197F1F79A8B898B8B899C895F
:103A400001979C8B8B8B8B899C89009769F714C09D
:103A50006D897E898F89988D0E944900DC01CB0198
:103A60009C8B8B8B8B899C89988B8F878F85988972
:103A70000197F1F7988B8F8782E060E00E94301603
:103A80008DED90E00E94071580E090E8ABEBB5E487
:103A90008B879C87AD87BE876B857C858D859E8552
:103AA00020E030E04AE755E40E941F02DC01CB0130
:103AB0008F839887A987BA876F81788589859A854A
:103AC00020E030E040E85FE30E94790388232CF493
:103AD00081E090E09E838D833FC06F8178858985EA
:103AE0009A8520E03FEF4FE757E40E94190318162C
:103AF0004CF56B857C858D859E8520E030E040E22D
:103B000051E40E941F02DC01CB01BC01CD010E94E7
:103B10004900DC01CB019E838D830FC080E991E0D9
:103B20009C838B838B819C810197F1F79C838B8392
:103B30008D819E8101979E838D838D819E810097CB
:103B400069F714C06F81788589859A850E9449003C
:103B5000DC01CB019E838D838D819E819A83898335
:103B600089819A810197F1F79A83898310920E01D6
:103B70004CCDCC5ADF4F0FB6F894DEBF0FBECDBF91
:103B8000CF91DF911F910F910895DF93CF93CDB720
:103B9000DEB780910A0190910B01409690930B0142
:103BA00080930A0180910D01882359F010920B0136
:103BB00010920A0180E062E041E00E94120C109233
:103BC0000D0180910A0190910B012FE0803A92073C
:103BD00058F080E062E040E00E94120C10920B016D
:103BE00010920A0110920D01CF91DF9108951F925A
:103BF0000F920FB60F9211242F933F934F935F9321
:103C00006F937F938F939F93AF93BF93EF93FF93A4
:103C1000DF93CF93CDB7DEB70E94C51DCF91DF9163
:103C2000FF91EF91BF91AF919F918F917F916F9194
:103C30005F914F913F912F910F900FBE0F901F906A
:103C40001895DF93CF93CDB7DEB7E2E5F0E01082B1
:103C5000E3E5F0E085E08083A9E5B0E0E9E5F0E0A8
:103C6000808181608C9380E0CF91DF910895629F85
:103C7000D001739FF001829FE00DF11D649FE00D64
:103C8000F11D929FF00D839FF00D749FF00D659FC5
:103C9000F00D9927729FB00DE11DF91F639FB00DC4
:103CA000E11DF91FBD01CF0111240895A1E21A2ED3
:103CB000AA1BBB1BFD010DC0AA1FBB1FEE1FFF1FD0
:103CC000A217B307E407F50720F0A21BB30BE40B20
:103CD000F50B661F771F881F991F1A9469F7609567
:103CE0007095809590959B01AC01BD01CF01089521
:103CF00097FB092E05260ED057FD04D0D7DF0AD03A
:103D0000001C38F450954095309521953F4F4F4F0A
:103D10005F4F0895F6F790958095709561957F4F68
:103D20008F4F9F4F08952F923F924F925F926F92C5
:103D30007F928F929F92AF92BF92CF92DF92EF923B
:103D4000FF920F931F93CF93DF93CDB7DEB7CA1BBC
:103D5000DB0B0FB6F894DEBF0FBECDBF09942A88E7
:103D6000398848885F846E847D848C849B84AA848F
:103D7000B984C884DF80EE80FD800C811B81AA811C
:103D8000B981CE0FD11D0FB6F894DEBF0FBECDBFE7
:083D9000ED010895F894FFCF46
:103D980057656C636F6D6520746F2047617261674A
:103DA8006500456E7465722050617373776F726435
:103DB800202020200031323334004C6F676765645F
:103DC80020696E20202020202000537563636573CE
:103DD8007366756C6C790057726F6E6720506173EB
:103DE80073776F7264202020200054727920416715
:103DF80061696E21212020202020202000596F7524
:103E08002061726520426C6F636B656400666F7237
:103E180020367300000000000000000000010101CE
:103E28000101013132332D34353678373839F763AB
:043E3800303D2B00EE
:00000001FF
